{"abi":[{"type":"function","name":"addBalance","inputs":[],"outputs":[{"name":"","type":"bool","internalType":"bool"}],"stateMutability":"payable"},{"type":"function","name":"postQuestion","inputs":[{"name":"questionText","type":"string","internalType":"string"},{"name":"expirationTime","type":"uint256","internalType":"uint256"},{"name":"reward","type":"uint256","internalType":"uint256"}],"outputs":[{"name":"","type":"bool","internalType":"bool"}],"stateMutability":"nonpayable"},{"type":"function","name":"register","inputs":[{"name":"userAddress","type":"address","internalType":"address"},{"name":"name","type":"string","internalType":"string"}],"outputs":[{"name":"","type":"bool","internalType":"bool"}],"stateMutability":"nonpayable"},{"type":"function","name":"viewUserDetails","inputs":[],"outputs":[{"name":"","type":"string","internalType":"string"},{"name":"","type":"uint256","internalType":"uint256"}],"stateMutability":"view"}],"bytecode":{"object":"0x6080604052348015600f57600080fd5b506108f78061001f6000396000f3fe60806040526004361061003f5760003560e01c80632bee1cfb1461004457806332434a2e14610070578063603adaf6146100a0578063b163cc38146100c0575b600080fd5b34801561005057600080fd5b506100596100c8565b604051610067929190610598565b60405180910390f35b34801561007c57600080fd5b5061009061008b366004610690565b61017b565b6040519015158152602001610067565b3480156100ac57600080fd5b506100906100bb3660046106ec565b61023b565b6100906104ab565b336000908152602081815260408083206001909252822054815460609392919082906100f39061073a565b80601f016020809104026020016040519081016040528092919081815260200182805461011f9061073a565b801561016c5780601f106101415761010080835404028352916020019161016c565b820191906000526020600020905b81548152906001019060200180831161014f57829003601f168201915b50505050509150915091509091565b6001600160a01b0382166000908152602081905260408120805461019e9061073a565b1590506101f25760405162461bcd60e51b815260206004820152601760248201527f5573657220616c7265616479207265676973746572656400000000000000000060448201526064015b60405180910390fd5b6001600160a01b038316600090815260208190526040902061021483826107c5565b50506001600160a01b03821660009081526001602081905260408220919091555b92915050565b33600090815260208190526040812080548291906102589061073a565b90501161029d5760405162461bcd60e51b8152602060048201526013602482015272155cd95c881b9bdd081c9959da5cdd195c9959606a1b60448201526064016101e9565b336000908152600160205260409020548211156102fc5760405162461bcd60e51b815260206004820152601f60248201527f496e73756666696369656e742062616c616e636520666f72207265776172640060448201526064016101e9565b42831161034b5760405162461bcd60e51b815260206004820152601760248201527f496e76616c69642065787069726174696f6e2074696d6500000000000000000060448201526064016101e9565b6040805160e0810182528581526020808201869052600082840181905233606084015260808301869052835181815291820190935260a082015260c0810182905260028054600181018255925280519091829160079091027f405787fa12a823e0f2b7631cc41b3ba8828b3321ca811111fa75cd3aa3bb5ace019081906103d290826107c5565b5060208281015160018301556040830151600283015560608301516003830180546001600160a01b0319166001600160a01b039092169190911790556080830151600483015560a0830151805161042f9260058501920190610538565b5060c091909101516006909101805460ff19169115159190911790553360009081526003602052604090206002546104699060019061089b565b81546001818101845560009384526020808520909201929092553383525260408120805485929061049b90849061089b565b9091555060019695505050505050565b33600090815260208190526040812080548291906104c89061073a565b90501161050d5760405162461bcd60e51b8152602060048201526013602482015272155cd95c881b9bdd081c9959da5cdd195c9959606a1b60448201526064016101e9565b336000908152600160205260408120805434929061052c9084906108ae565b90915550600192915050565b828054828255906000526020600020908101928215610573579160200282015b82811115610573578251825591602001919060010190610558565b5061057f929150610583565b5090565b5b8082111561057f5760008155600101610584565b604081526000835180604084015260005b818110156105c657602081870181015160608684010152016105a9565b506000606082850101526060601f19601f8301168401019150508260208301529392505050565b634e487b7160e01b600052604160045260246000fd5b600082601f83011261061457600080fd5b813567ffffffffffffffff8082111561062f5761062f6105ed565b604051601f8301601f19908116603f01168101908282118183101715610657576106576105ed565b8160405283815286602085880101111561067057600080fd5b836020870160208301376000602085830101528094505050505092915050565b600080604083850312156106a357600080fd5b82356001600160a01b03811681146106ba57600080fd5b9150602083013567ffffffffffffffff8111156106d657600080fd5b6106e285828601610603565b9150509250929050565b60008060006060848603121561070157600080fd5b833567ffffffffffffffff81111561071857600080fd5b61072486828701610603565b9660208601359650604090950135949350505050565b600181811c9082168061074e57607f821691505b60208210810361076e57634e487b7160e01b600052602260045260246000fd5b50919050565b601f8211156107c0576000816000526020600020601f850160051c8101602086101561079d5750805b601f850160051c820191505b818110156107bc578281556001016107a9565b5050505b505050565b815167ffffffffffffffff8111156107df576107df6105ed565b6107f3816107ed845461073a565b84610774565b602080601f83116001811461082857600084156108105750858301515b600019600386901b1c1916600185901b1785556107bc565b600085815260208120601f198616915b8281101561085757888601518255948401946001909101908401610838565b50858210156108755787850151600019600388901b60f8161c191681555b5050505050600190811b01905550565b634e487b7160e01b600052601160045260246000fd5b8181038181111561023557610235610885565b808201808211156102355761023561088556fea2646970667358221220a0e7ff05f5682fa179b3cdd20ded9e9ebffc5e6e3eee57adff2d62b14038d59564736f6c63430008190033","linkReferences":{}},"methodIdentifiers":{"addBalance()":"b163cc38","postQuestion(string,uint256,uint256)":"603adaf6","register(address,string)":"32434a2e","viewUserDetails()":"2bee1cfb"},"id":23}